:020000040000FA
:030000000200AB50
:10004B0002029B00000080FB1200DBB900030200E0
:10005B0095E4900200780279018002F0A3D8FCD9D4
:10006B00FA900201AA82AB839000DE781B790180A3
:10007B0015E493A3AC82AD838A828B83F0A3AA820F
:10008B00AB838C828D83D8E9D9E77582FE758302A9
:10009B0074001200BD75824E75830074001200BD92
:1000AB0075D0007581BF751000751102759F000228
:1000BB000053C09FF59FE473D09F22D083D082C0A2
:1000CB009FE493C0E0740193C0E0740293F59F2208
:1000DB0079012268656C6C6F20776F7264210D0A51
:1000EB00000002021C01000303220102001200C6E1
:1000FB00CA02001200C6D902001200C6E0020012AA
:10010B0000C60603001200C6F303001200C69904D2
:10011B00001200C6CC04001200C6E904001200C68F
:10012B00FB04001200C60F05001200C620050012CA
:10013B0000C63F05001200C64A0500E4732510C532
:10014B0082C0E0E51134FFC583C0E0E510C39582A2
:10015B0024F8F8E4C5A8858311858210C5A8E8CEDC
:10016B00F0A3E520F0A37808E608F0A3DEFAEFF0A1
:10017B00A3E58124FAF8E608F0A3E608F0A3E60865
:10018B00F0A30808E608F0A3E608F0A31581158193
:10019B00D0E0FED0E0F8158115811581E8C0E0EEC6
:1001AB00C0E022851183851082E0A3FEE0A3F52039
:1001BB007808E0A3F608DFFAE0A3FFE0A3C0E0E0D5
:1001CB00A3C0E0E0A3C0E0E0A3C0E0E0A3C0E0E494
:1001DB00C5A8858210858311C5A8D083D082020063
:1001EB00C3C0D02510C582C0E0E51134FFC583C064
:1001FB00E0E510C3958224F310AF08858311858247
:10020B00108008858311858210D2AFC8F0A3E9F066
:10021B00A3EAF0A3EBF0A37908E709F0A3D8FAEC73
:10022B00F0A3EDF0A3EEF0A3EFF0A3D0E0F0A3D09A
:10023B00E0F0A3D0E0F0A3E520F0A3E5F0F0A322DB
:10024B00851183851082E0C0E0A3E0F9A3E0FAA357
:10025B00E0FBA37808E0F608A3DFFAE0FCA3E0FDDF
:10026B00A3E0FEA3E0FFA3E0C0E0A3E0C0E0A3E0B7
:10027B00F5D0A3E0F520A3E0A3F5F0E4C5A88583B2
:10028B0011858210C5A8D082D083D0E0F8D0E0329F
:10029B00C0E074F21201ECC2B9900200E02401F04C
:1002AB00900200E0C3940640097400900200F01223
:1002BB00010A75DAF475DB24D2B97F0102024B75A2
:1002CB00E40E75DAF475DB2443E6040200C3D2B9FD
:1002DB00D2AF0200C3C082C0831200F812012E12EB
:1002EB0001287A0079001201341200FED083D082EB
:1002FB000200C312010412011080FB74F6120148B4
:10030B007B008077EBF87900E875F005A4C8AAF0BC
:10031B0075F000A42AFA75F005E9A42AF9E824116E
:10032B00F582E93402F583E0C0E0EBF87900E8757B
:10033B00F005A4C8AAF075F000A42AFA75F005E937
:10034B00A42AF9E82410F582E93402F583D0E0F011
:10035B007401C0E0EBF87900E875F005A4C8AAF0C9
:10036B0075F000A42AFA75F005E9A42AF9E8240F20
:10037B00F582E93402F583D0E0F00B8B08750900A8
:10038B00900219E0F8A3E0F9C3E50898E509995044
:10039B0052EBF87900E875F005A4C8AAF075F000E7
:1003AB00A42AFA75F005E9A42AF9E82410F582E9E4
:1003BB003402F583E0700302030FEBF87900E87564
:1003CB00F005A4C8AAF075F000A42AFA75F005E9A7
:1003DB00A42AF9E82410F582E93402F583E024FF1E
:1003EB00F080977F020201AE74F61201487E008006
:1003FB007FEEF87900E875F005A4C8AAF075F00057
:10040B00A42AFA75F005E9A42AF9E8240FF582E984
:10041B003402F583E06058EEF87900E875F005A436
:10042B00C8AAF075F000A42AFA75F005E9A42AF918
:10043B00E82412F582E93402F583E0F8A3E0F583B2
:10044B0088821201467400C0E0EEF87900E875F07E
:10045B0005A4C8AAF075F000A42AFA75F005E9A462
:10046B002AF9E8240FF582E93402F583D0E0F00E87
:10047B008E08750900900219E0F8A3E0F9C3E508AE
:10048B0098E5099950030203FC7F020201AEEAF8DA
:10049B00EBF9801AEA24FFFAEB34FFFB74006A7065
:1004AB000374006B70EEE824FFF8E934FFF9740075
:1004BB0068700374006960067A407B0180DE02007D
:1004CB00C3C082C083C2907A647B00120116D290A3
:1004DB007A647B00120116D083D0820200C3C082E3
:1004EB00C0837A017B02120140D083D0820200C309
:1004FB0053BEFBE59EA2E650FA53C6B8E5C643BE13
:10050B00040200C353F4FCE5F443FE03E5FED29072
:10051B00D2910200C343F30CE5F353F1FE53FF3FBB
:10052B00E5FF7586C075C50975C23BEA4945C4F53B
:10053B00C40200C389C1A2E950FCC2E90200C37422
:10054B00F7120148EAFEEBFF80128E828F83E0F9EF
:10055B0012013A8E828F83A3AE82AF838E828F83FA
:08056B00E070E77F010201AE20
:04000005000000AB4C
:00000001FF
